:1000000045C0000061C000005FC000005DC000008E
:100010005BC0000020C10000C6C10000FAC10000A2
:1000200053C0000051C000004FC000004DC0000090
:100030004BC0000049C0000047C0000045C00000A0
:10004000E3C0000041C000003FC000003DC0000010
:100050003BC0000039C0000037C0000035C00000C0
:1000600033C0000031C000002FC000002DC00000D0
:100070002BC0000029C0000027C0000025C00000E0
:1000800023C0000021C000001FC0000011241FBEBB
:10009000CFEFD0E1DEBFCDBF11E0A0E0B1E0E6E5FB
:1000A000F1E100E00BBF02C007900D92A03BB10749
:1000B000D9F722E0A0EBB1E001C01D92A636B2074D
:1000C000E1F7C2D30C94A9089BCF8BBBE5E6F0E027
:1000D00080818460808385E08A95F1F780818B7FC1
:1000E000808389E993E00197F1F700C00895E5E680
:1000F000F0E080818E7F808385E08A95F1F781E052
:10010000E4DF89E999E30197F1F700C00895E5E696
:10011000F0E080818E7F80832FEF8FEF98E0215079
:1001200080409040E1F700C0000088E3CEDF8FE020
:10013000CCDF81E0CADF2FEF8FE794E021508040D1
:100140009040E1F700C000000895E5E6F0E09081FE
:100150009E7F908395E09A95F1F7611103C08058D6
:10016000B4DF02C08054B1DF86E69EE00197F1F76C
:1001700000000895CF93DF93EC01E5E6F0E0808185
:100180008160808385E08A95F1F78881882329F052
:1001900021969BDF89918111FCCFDF91CF9108954A
:1001A000E5E6F0E080818E7F80832FEF8FEF98E08F
:1001B000215080409040E1F700C000008CE085DFD6
:1001C0002FEF8FE794E0215080409040E1F700C08E
:1001D00000000895E5E6F0E02081286020831816ED
:1001E000190664F420E030E0E6E6FEE03197F1F72E
:1001F00000002F5F3F4F82179307B1F7E5E6F0E06D
:100200008081877F808308951F920F920FB60F928F
:1002100011248F939F93AF93BF9388EB82BF8091FC
:10022000C2019091C301A091C401B091C501019692
:10023000A11DB11D8093C2019093C301A093C4017D
:10024000B093C501BF91AF919F918F910F900FBE59
:100250000F901F9018951F920F920FB60F921124B6
:100260000BB60F92CF92DF92EF92FF922F933F93B4
:100270004F935F936F937F938F939F93AF93BF93AE
:10028000EF93FF93C090C201D090C301E090C401EE
:10029000F090C5018091B0019091B101A091B2019F
:1002A000B091B301A7019601281B390B4A0B5B0BD8
:1002B0002B3031054105510508F45EC08091C00125
:1002C0009091C10144970CF04FC08EE190E082DF25
:1002D0008091C0019091C101892B89F4C092B8012D
:1002E000D092B901E092BA01F092BB0110921602CD
:1002F0001092170210921802109219022CC0E0916D
:10030000C001F091C1018091B8019091B901A09113
:10031000BA01B091BB01A7019601281B390B4A0B0A
:100320005B0BDA01C901BA01A901440F551F661F11
:10033000771F440F551F661F771F840F951FA61F39
:10034000B71FEE0FFF1FEE0FFF1FEA5EFD4F80830A
:100350009183A283B3838091C0019091C1010196E2
:100360009093C1018093C001C092B001D092B101BD
:10037000E092B201F092B301FF91EF91BF91AF9182
:100380009F918F917F916F915F914F913F912F91AD
:10039000FF90EF90DF90CF900F900BBE0F900FBEAD
:1003A0000F901F9018951F920F920FB60F92112465
:1003B0000BB60F922F933F934F935F936F937F935F
:1003C0008F939F93AF93BF93EF93FF9326E686EEB1
:1003D00090E0215080409040E1F782E390E0FADE27
:1003E00081E090E09093BD018093BC01FF91EF917B
:1003F000BF91AF919F918F917F916F915F914F913D
:100400003F912F910F900BBE0F900FBE0F901F903A
:1004100018951F920F920FB60F9211240BB60F92E0
:100420002F933F934F935F936F937F938F939F93FC
:10043000AF93BF93EF93FF938091B6019091B70173
:10044000019781F426E686EE90E0215080409040AE
:10045000E1F78EE190E0BEDE81E090E09093B5019F
:100460008093B401FF91EF91BF91AF919F918F91D4
:100470007F916F915F914F913F912F910F900BBEA4
:100480000F900FBE0F901F9018958FEF8ABB8BBBFC
:10049000809364001092650087BB88BB38DE80DEE5
:1004A0008AE28ABF80E789BF87E083BF81E087BF98
:1004B00088EB82BF80E88FBF08952F923F924F92C2
:1004C0005F926F927F928F929F92AF92BF92CF92E4
:1004D000DF92EF92FF920F931F93CF93DF93CDB7ED
:1004E000DEB760970FB6F894DEBF0FBECDBF109297
:1004F000B5011092B401FBDD80E091E03BDE61E0EC
:1005000080E023DE8BE091E035DE83EE88BB84EF74
:1005100091E060DE1092C1011092C0011092BD0105
:100520001092BC01CE0101965C0185C08091C00192
:100530009091C10118161906C4F460E08CE005DE44
:100540008091C0019091C1019F938F938AE191E0C6
:100550009F938F93BF92AF9221D3C5010BDE0F9073
:100560000F900F900F900F900F908091C00190917D
:10057000C101181619060CF05EC0C090C201D090DF
:10058000C301E090C401F090C501E091C001F09179
:10059000C101EE0FFF1FEE0FFF1FEE5EFD4F6081EA
:1005A0007181828193810091B8011091B9012091EC
:1005B000BA013091BB01C01AD10AE20AF30A2DEC4C
:1005C0003CEC4CEC5CEC8ED200E2B5D2222E332E09
:1005D000442E552ED201C101B695A79597958795C2
:1005E000B695A79597958795C81AD90AEA0AFB0A7E
:1005F00089EEC81683E0D806E104F104E0F0109219
:10060000C1011092C00188EC90E0E4DD60E08BE075
:100610009CDD80E291E0AEDD9FEF2FEF8CE2915008
:1006200020408040E1F700C0000060E08BE08DDDFD
:1006300086E291E09FDD8091BC019091BD01892B04
:1006400009F474CF8091C0019091C1019093BF01D2
:100650008093BE018091BE019091BF0118161906CA
:10066000F4F420E030E0C901880F991F880F991F2A
:10067000FC01EA5EFD4F4081518162817381FC0182
:10068000EA53FE4F40835183628373832F5F3F4F52
:100690008091BE019091BF012817390724F327DD0F
:1006A0008CE291E067DD61E080E04FDD8091BE018A
:1006B0009091BF019F938F9389E391E09F938F93D4
:1006C0008E010F5F1F4F1F930F9368D2C80152DD39
:1006D0008FE188BB82E390E07DDD9FEF2FE382E036
:1006E000915020408040E1F700C0000082E390E09C
:1006F00071DD9FEF2FE382E0915020408040E1F7D1
:1007000000C0000082E390E065DD9FEF2FEF89E5F8
:10071000915020408040E1F700C000000F900F9002
:100720000F900F900F900F9060960FB6F894DEBF69
:100730000FBECDBFDF91CF911F910F91FF90EF9032
:10074000DF90CF90BF90AF909F908F907F906F90F1
:100750005F904F903F902F900895EF92FF920F93EC
:100760001F932091C0013091C1018091BE019091F1
:10077000BF012817390709F057C08091BE01909139
:10078000BF0102970CF453C080911A0290911B0292
:10079000A0911C02B0911D024091CA015091CB0161
:1007A0006091CC017091CD01841B950BA60BB70B0A
:1007B0009C01992324F422273327281B390B27393E
:1007C0003105C4F521E030E023C0C901880F991F2D
:1007D000880F991FFC01EA5EFD4F408151816281C3
:1007E0007381FC01EA53FE4F80819181A281B38124
:1007F0007A018B01E81AF90A0A0B1B0BA701FF20EB
:1008000024F4442755274E195F0947395105ACF4A4
:100810002F5F3F4F8091BE019091BF01281739078C
:10082000A4F281E090E00BC080E090E008C081E09D
:1008300090E005C080E090E002C080E090E01F9171
:100840000F91FF90EF900895CF93DF93CDB7DEB770
:1008500063970FB6F894DEBF0FBECDBF16DE47DC40
:1008600089E491E087DC61E080E06FDC82E591E083
:1008700081DC84E690E0AEDC2FEF3FE743E42150DB
:1008800030404040E1F700C0000017DE0F2EFAE1D3
:10089000AF2EF1E0BF2EF02DCE0101969A8B898B01
:1008A00099899B8B1A891092B7011092B601109208
:1008B000B5011092B4011092C1011092C0011092C2
:1008C000BD011092BC012FEF28BB11DC60E080E07D
:1008D0003CDC81E691E04EDC61E080E036DC8DE6D8
:1008E00091E048DC88C08091C0019091C101181648
:1008F0001906DCF461E08DE028DC8091C001909164
:10090000C1019F938F93BF92AF9281E090E08C0FD3
:100910009D1F9F938F9342D18B89912F2BDC0F903A
:100920000F900F900F900F900F908091C0019091B9
:10093000C101181619060CF05EC0C090C201D0901B
:10094000C301E090C401F090C501E091C001F091B5
:10095000C101EE0FFF1FEE0FFF1FEE5EFD4F608126
:100960007181828193814090B8015090B90160906B
:10097000BA017090BB01C418D508E608F7082DEC41
:100980003CEC4CEC5CECAED000E2D5D0222E332E09
:10099000442E552ED201C101B695A79597958795FE
:1009A000B695A79597958795C81AD90AEA0AFB0ABA
:1009B00099E5C91692E0D906E104F104E0F010923D
:1009C000C1011092C00184E690E004DC61E08DE09A
:1009D000BCDB8AE791E0CEDB2FEF3FE746E1215019
:1009E00030404040E1F700C0000061E08DE0ADDB49
:1009F00088E291E0BFDB8091BC019091BD01892B21
:100A000009F471CF74DB8EE791E0B4DB83EE88BB31
:100A10009FEF2FE736E1915020403040E1F700C0D2
:100A200000009BDE892B09F43EC081E090E09093AA
:100A3000B7018093B60184E690E0CCDB9FEF2FE70F
:100A400034E0915020403040E1F700C0000084E6DF
:100A500090E0C0DB4CDB8AE891E08CDB61E080E079
:100A600074DB87E991E086DB4FE148BB82E390E0ED
:100A70002FEF3FE744E0215030404040E1F700C015
:100A800000002091B4013091B5012130310511F001
:100A9000019771F78091B4019091B501019709F028
:100AA00002CF0BDD00CF23DB81EA91E063DB8CEF2B
:100AB00088BB88EC90E08EDB9FEF2FE734E091500D
:100AC00020403040E1F700C0000088EC90E082DB7D
:100AD0004FEF8FE793E4415080409040E1F700C032
:100AE0000000E1CEE894DF93CF93FC01DB013FD01F
:100AF0007F936F93E9019A01AC01BF93AF933F934A
:100B00002F93DF0134D026F46C1B7D0B820B930BEB
:100B10009E01EB01FC013AD0AF91BF912F913F9123
:100B200035D0BE01CF01F9012F913F91CF91DF91D7
:100B3000089597FB10F8169400080F93083098F06A
:100B40000850232F342F452F562F672F782F892FAA
:100B5000902DF4CF05949795879577956795579540
:100B60004795379527950A95AAF70F910895A29F63
:100B7000B001B39FC001A39F700D811D1124911D71
:100B8000B29F700D811D1124911D0895F0DF460F55
:100B9000571FC81FD91F08F4319608950F931F934C
:100BA000CF93DF93CDB7DEB72E970FB6F894DEBFA5
:100BB0000FBECDBF0D891E8986E08C831A83098301
:100BC0008FEF9FE79E838D83AE01475E5F4F6F89F6
:100BD000788DCE01019610D0EF81F885E00FF11FDE
:100BE00010822E960FB6F894DEBF0FBECDBFDF91F8
:100BF000CF911F910F9108952F923F924F925F9244
:100C00006F927F928F929F92AF92BF92CF92DF921C
:100C1000EF92FF920F931F93CF93DF93CDB7DEB781
:100C20002B970FB6F894DEBF0FBECDBF6C017B01D2
:100C30008A01FC0117821682838181FFBFC1CE0128
:100C400001963C01F6019381F70193FD859193FF95
:100C500081917F01882309F4ADC1853239F493FD78
:100C6000859193FF81917F01853221F4B60190E057
:100C7000D6D1E8CF912C212C312CFFE1F315D8F0FF
:100C80008B3279F038F4803279F08332A1F4232D5D
:100C900020611DC08D3261F0803369F4232D216005
:100CA00016C0832D8260382EE32DE4603E2E2AC0CC
:100CB000F32DF8601DC037FC2DC020ED280F2A3021
:100CC00040F08E32B9F436FC75C1232D2064322EEB
:100CD00019C036FE06C08AE0989E200D1124922E7F
:100CE00011C0EAE02E9E200D1124222EF32DF06279
:100CF0003F2E08C08C3621F4832D8068382E02C028
:100D0000883641F4F70193FD859193FF81917F012E
:100D10008111B3CF982F9F7D9554933028F40C5FA9
:100D20001F4F9FE399830DC0833631F0833771F0F5
:100D3000833509F055C020C0F801808189830E5F9A
:100D40001F4F88248394912C530112C02801F2E094
:100D50004F0E511CF801A080B18036FE03C0692DF2
:100D600070E002C06FEF7FEFC5014ED14C018201F0
:100D7000F32DFF773F2E15C0280122E0420E511CB3
:100D8000F801A080B18036FE03C0692D70E002C07A
:100D90006FEF7FEFC5012DD14C01F32DF0683F2E91
:100DA000820133FC19C0822D90E088169906A0F4C8
:100DB000B60180E290E033D12A94F5CFF50137FCFB
:100DC000859137FE81915F01B60190E028D1211015
:100DD0002A9421E0821A91088114910479F7E1C0E4
:100DE000843611F0893639F5F80137FE07C0608185
:100DF0007181828193810C5F1F4F08C06081718176
:100E0000072E000C880B990B0E5F1F4FF32DFF76FA
:100E10003F2E97FF09C090958095709561957F4F03
:100E20008F4F9F4FF0683F2E2AE030E0A30133D16F
:100E3000882E861844C0853731F4232D2F7EB22E9C
:100E40002AE030E025C0932D997FB92E8F36C1F06E
:100E500018F4883579F0AEC0803719F0883721F062
:100E6000A9C0E92FE061BE2EB4FE0DC0FB2DF460D9
:100E7000BF2E09C034FE0AC0292F2660B22E06C03C
:100E800028E030E005C020E130E002C020E132E09F
:100E9000F801B7FE07C060817181828193810C5F88
:100EA0001F4F06C06081718180E090E00E5F1F4F90
:100EB000A301F1D0882E8618FB2DFF773F2E36FE3A
:100EC0000DC0232D2E7FA22E891458F434FE0BC0A2
:100ED00032FC09C0832D8E7EA82E05C0B82CA32C11
:100EE00003C0B82C01C0B92CA4FE0FC0FE01E80D50
:100EF000F11D8081803321F49A2D997EA92E09C09D
:100F0000A2FE06C0B394B39404C08A2D867809F07B
:100F1000B394A3FC10C0A0FE06C0B21480F4280C49
:100F2000922C9B180DC0B21458F4B60180E290E0E8
:100F300076D0B394F8CFB21418F42B1802C0982CC2
:100F4000212CA4FE0FC0B60180E390E068D0A2FE81
:100F500016C0A1FC03C088E790E002C088E590E0DD
:100F6000B6010CC08A2D867851F0A1FE02C08BE23A
:100F700001C080E2A7FC8DE2B60190E050D0891458
:100F800030F4B60180E390E04AD09A94F8CF8A9486
:100F9000F301E80DF11D8081B60190E040D0811091
:100FA000F6CF222009F44ECEB60180E290E037D091
:100FB0002A94F7CFF6018681978102C08FEF9FEFC9
:100FC0002B960FB6F894DEBF0FBECDBFDF91CF9149
:100FD0001F910F91FF90EF90DF90CF90BF90AF9057
:100FE0009F908F907F906F905F904F903F902F9049
:100FF0000895FC010590615070400110D8F780956C
:1010000090958E0F9F1F0895FC01615070400190D4
:101010000110D8F7809590958E0F9F1F08950F931C
:101020001F93CF93DF93FB01238121FD03C08FEF3B
:101030009FEF2CC022FF16C0468157812481358145
:101040004217530744F4A081B1819D012F5F3F4FA8
:10105000318320838C93268137812F5F3F4F3783E5
:10106000268314C08B01EC01FB010084F185E02D87
:101070000995892BE1F6D80116968D919C911797C9
:10108000019617969C938E931697CE01DF91CF9180
:101090001F910F910895FA01AA27283051F12031AC
:1010A00081F1E8946F936E7F6E5F7F4F8F4F9F4FFC
:1010B000AF4FB1E03ED0B4E03CD0670F781F891F3E
:1010C0009A1FA11D680F791F8A1F911DA11D6A0F0C
:1010D000711D811D911DA11D20D009F468943F91BF
:1010E0002AE0269F11243019305D3193DEF6CF01BE
:1010F0000895462F4770405D4193B3E00FD0C9F784
:10110000F6CF462F4F70405D4A3318F0495D31FDF0
:101110004052419302D0A9F7EACFB4E0A695979543
:10112000879577956795BA95C9F700976105710519
:1011300008959B01AC010A2E069457954795379563
:101140002795BA95C9F7620F731F841F951FA01DBD
:061150000895F894FFCFA2
:101156005345545550204D4F44450054617020531B
:101166005732202D3E20535733002564202020007F
:101176005265747279002020202020004E65772069
:1011860050617373776F72640053617665642025CE
:1011960064204265617473210057656C636F6D65E9
:1011A6002100496E69742053797374656D2E2E2E55
:1011B6000052687974686D204C6F636B004C6F63E6
:1011C6006B6564205B5357325D005253540043688D
:1011D60065636B696E672E2E2E00444F4F52204F6B
:1011E60050454E454421005B5357343D5365745D6D
:1011F600004163636573732044656E69656400002E
:00000001FF
